:03000000020006F5
:03005F0002000399
:0300030002006296
:180062001200C912007AC2959003E812008AD2959003E812008A80EEC5
:20007A004389015389FD438E085389FB5389F722AE82AF83EE4F60121EBEFF011FC007C088
:20009A00061200A5D006D00780EA22758C00758A00D28CAF8C7E00AC8A7D00EC2EFEED3F42
:0F00BA00FFC3EE9480EF648094BE40E7C28C22B7
:0700C90053B3DF43B4202212
:06003500E478FFF6D8FD9F
:200013007900E94400601B7A009000D4780175A000E493F2A308B8000205A0D9F4DAF275BF
:02003300A0FF2C
:20003B007800E84400600A790175A000E4F309D8FC7800E84400600C7900900001E4F0A3C3
:04005B00D8FCD9FAFA
:0D0006007581071200D0E58260030200033F
:0400D0007582002213
:00000001FF
