:03000000020006F5
:03005F0002000399
:0300030002006296
:1E00620075080175090175820F1200CFC295900032120090D29590003212009080EEA8
:200080004389015389FD438E085389FB5389F722AE82AF83EE4F60121EBEFF011FC007C082
:2000A000061200ABD006D00780EA22758C00758A00D28CAF8C7E00AC8A7D00EC2EFEED3F36
:0F00C000FFC3EE9480EF648094BE40E7C28C22B1
:2000CF00E582FF24E1500122EF240A83F582EF242383F583E4732364A5E62768A9EA73737A
:2000EF002B6CADEE2F70B1F2737373737373737373737373330101010102020202050503CD
:20010F000303030404040405050505050505050505050505E50824FC4034E50875F003A4FC
:20012F009001337302013F02014702014F02015753B1FE53B2FE801653B1FE43B201800E20
:20014F0043B10153B2FE800643B10143B201E50924FF928022E50824FC4034E50875F0030C
:20016F00A49001747302018002018802019002019853B1FD53B2FD801653B1FD43B2028007
:20018F000E43B10253B2FD800643B10243B202E50924FF928122E50824FC4034E50875F0BE
:2001AF0003A49001B5730201C10201C90201D10201D953B1FB53B2FB801653B1FB43B20403
:2001CF00800E43B10453B2FB800643B10443B204E50924FF928222E50824FC4034E50875E9
:2001EF00F003A49001F67302020202020A02021202021A53B1F753B2F7801653B1F743B29A
:20020F0008800E43B10853B2F7800643B10843B208E50924FF928322E50824FC4034E5080C
:20022F0075F003A49002377302024302024B02025302025B53B1EF53B2EF801653B1EF4368
:20024F00B210800E43B11053B2EF800643B11043B210E50924FF928422E50824FC4034E509
:20026F000875F003A49002787302028402028C02029402029C53B1DF53B2DF801653B1DF4E
:20028F0043B220800E43B12053B2DF800643B12043B220E50924FF928522E50824FC40343A
:2002AF00E50875F003A49002B9730202C50202CD0202D50202DD53B1BF53B2BF801653B103
:2002CF00BF43B240800E43B14053B2BF800643B14043B240E50924FF928622E50824FC400E
:2002EF0034E50875F003A49002FA7302030602030E02031602031E53B17F53B27F80165377
:20030F00B17F43B280800E43B18053B27F800643B18043B280E50924FF928722E50824FCDB
:20032F004034E50875F003A490033B7302034702034F02035702035F53B3FE53B4FE801601
:20034F0053B3FE43B401800E43B30153B4FE800643B30143B401E50924FF929022E508242D
:20036F00FC4034E50875F003A490037C730203880203900203980203A053B3FD53B4FD8098
:20038F001653B3FD43B402800E43B30253B4FD800643B30243B402E50924FF929122E508F8
:2003AF0024FC4034E50875F003A49003BD730203C90203D10203D90203E153B3FB53B4FB73
:2003CF00801653B3FB43B404800E43B30453B4FB800643B30443B404E50924FF929222E53B
:2003EF000824FC4034E50875F003A49003FE7302040A02041202041A02042253B3F753B4E1
:20040F00F7801653B3F743B408800E43B30853B4F7800643B30843B408E50924FF929322DF
:20042F00E50824FC4034E50875F003A490043F7302044B02045302045B02046353B3EF5331
:20044F00B4EF801653B3EF43B410800E43B31053B4EF800643B31043B410E50924FF929404
:20046F0022E50824FC4034E50875F003A49004807302048C02049402049C0204A453B3DFED
:20048F0053B4DF801653B3DF43B420800E43B32053B4DF800643B32043B420E50924FF92F5
:2004AF009522E50824FC4034E50875F003A49004C1730204CD0204D50204DD0204E553B3B2
:2004CF00BF53B4BF801653B3BF43B440800E43B34053B4BF800643B34043B440E50924FF68
:2004EF00929622E50824FC4034E50875F003A49005027302050E02051602051E0205265348
:20050F00B37F53B47F801653B37F43B480800E43B38053B47F800643B38043B480E5092473
:20052F00FF929722E50824FC4034E50875F003A49005437302054F02055702055F02056715
:20054F0053ACFE53ADFE801653ACFE43AD01800E43AC0153ADFE800643AC0143AD01E5093C
:05056F0024FF92B02200
:06003500E478FFF6D8FD9F
:200013007900E94400601B7A00900578780175A000E493F2A308B8000205A0D9F4DAF27516
:02003300A0FF2C
:20003B007800E84400600A790175A000E4F309D8FC7800E84400600C7900900001E4F0A3C3
:04005B00D8FCD9FAFA
:0D000600758109120574E582600302000394
:04057400758200226A
:00000001FF
